{
  "contractName": "IPLAuction",
  "abi": [
    {
      "inputs": [],
      "stateMutability": "nonpayable",
      "type": "constructor"
    },
    {
      "anonymous": false,
      "inputs": [
        {
          "indexed": true,
          "internalType": "address",
          "name": "owner",
          "type": "address"
        },
        {
          "indexed": true,
          "internalType": "address",
          "name": "approved",
          "type": "address"
        },
        {
          "indexed": true,
          "internalType": "uint256",
          "name": "tokenId",
          "type": "uint256"
        }
      ],
      "name": "Approval",
      "type": "event"
    },
    {
      "anonymous": false,
      "inputs": [
        {
          "indexed": true,
          "internalType": "address",
          "name": "owner",
          "type": "address"
        },
        {
          "indexed": true,
          "internalType": "address",
          "name": "operator",
          "type": "address"
        },
        {
          "indexed": false,
          "internalType": "bool",
          "name": "approved",
          "type": "bool"
        }
      ],
      "name": "ApprovalForAll",
      "type": "event"
    },
    {
      "anonymous": false,
      "inputs": [],
      "name": "AuctionEnded",
      "type": "event"
    },
    {
      "anonymous": false,
      "inputs": [],
      "name": "AuctionStarted",
      "type": "event"
    },
    {
      "anonymous": false,
      "inputs": [
        {
          "indexed": false,
          "internalType": "uint256",
          "name": "playerId",
          "type": "uint256"
        },
        {
          "indexed": false,
          "internalType": "string",
          "name": "name",
          "type": "string"
        },
        {
          "indexed": false,
          "internalType": "uint256",
          "name": "basePrice",
          "type": "uint256"
        }
      ],
      "name": "PlayerAdded",
      "type": "event"
    },
    {
      "anonymous": false,
      "inputs": [
        {
          "indexed": false,
          "internalType": "uint256",
          "name": "playerId",
          "type": "uint256"
        },
        {
          "indexed": false,
          "internalType": "string",
          "name": "playerName",
          "type": "string"
        },
        {
          "indexed": false,
          "internalType": "uint256",
          "name": "highestBid",
          "type": "uint256"
        },
        {
          "indexed": false,
          "internalType": "address",
          "name": "buyer",
          "type": "address"
        }
      ],
      "name": "PlayerSold",
      "type": "event"
    },
    {
      "anonymous": false,
      "inputs": [
        {
          "indexed": false,
          "internalType": "string",
          "name": "teamName",
          "type": "string"
        },
        {
          "indexed": false,
          "internalType": "address",
          "name": "owner",
          "type": "address"
        }
      ],
      "name": "TeamCreated",
      "type": "event"
    },
    {
      "anonymous": false,
      "inputs": [
        {
          "indexed": true,
          "internalType": "address",
          "name": "from",
          "type": "address"
        },
        {
          "indexed": true,
          "internalType": "address",
          "name": "to",
          "type": "address"
        },
        {
          "indexed": true,
          "internalType": "uint256",
          "name": "tokenId",
          "type": "uint256"
        }
      ],
      "name": "Transfer",
      "type": "event"
    },
    {
      "inputs": [
        {
          "internalType": "address",
          "name": "to",
          "type": "address"
        },
        {
          "internalType": "uint256",
          "name": "tokenId",
          "type": "uint256"
        }
      ],
      "name": "approve",
      "outputs": [],
      "stateMutability": "nonpayable",
      "type": "function"
    },
    {
      "inputs": [],
      "name": "auctioner",
      "outputs": [
        {
          "internalType": "address payable",
          "name": "",
          "type": "address"
        }
      ],
      "stateMutability": "view",
      "type": "function",
      "constant": true
    },
    {
      "inputs": [
        {
          "internalType": "address",
          "name": "owner",
          "type": "address"
        }
      ],
      "name": "balanceOf",
      "outputs": [
        {
          "internalType": "uint256",
          "name": "",
          "type": "uint256"
        }
      ],
      "stateMutability": "view",
      "type": "function",
      "constant": true
    },
    {
      "inputs": [],
      "name": "currentPhase",
      "outputs": [
        {
          "internalType": "enum IPLAuction.Phase",
          "name": "",
          "type": "uint8"
        }
      ],
      "stateMutability": "view",
      "type": "function",
      "constant": true
    },
    {
      "inputs": [
        {
          "internalType": "uint256",
          "name": "tokenId",
          "type": "uint256"
        }
      ],
      "name": "getApproved",
      "outputs": [
        {
          "internalType": "address",
          "name": "",
          "type": "address"
        }
      ],
      "stateMutability": "view",
      "type": "function",
      "constant": true
    },
    {
      "inputs": [
        {
          "internalType": "address",
          "name": "owner",
          "type": "address"
        },
        {
          "internalType": "address",
          "name": "operator",
          "type": "address"
        }
      ],
      "name": "isApprovedForAll",
      "outputs": [
        {
          "internalType": "bool",
          "name": "",
          "type": "bool"
        }
      ],
      "stateMutability": "view",
      "type": "function",
      "constant": true
    },
    {
      "inputs": [],
      "name": "name",
      "outputs": [
        {
          "internalType": "string",
          "name": "",
          "type": "string"
        }
      ],
      "stateMutability": "view",
      "type": "function",
      "constant": true
    },
    {
      "inputs": [],
      "name": "numPlayers",
      "outputs": [
        {
          "internalType": "uint256",
          "name": "",
          "type": "uint256"
        }
      ],
      "stateMutability": "view",
      "type": "function",
      "constant": true
    },
    {
      "inputs": [],
      "name": "numTeams",
      "outputs": [
        {
          "internalType": "uint256",
          "name": "",
          "type": "uint256"
        }
      ],
      "stateMutability": "view",
      "type": "function",
      "constant": true
    },
    {
      "inputs": [
        {
          "internalType": "uint256",
          "name": "tokenId",
          "type": "uint256"
        }
      ],
      "name": "ownerOf",
      "outputs": [
        {
          "internalType": "address",
          "name": "",
          "type": "address"
        }
      ],
      "stateMutability": "view",
      "type": "function",
      "constant": true
    },
    {
      "inputs": [
        {
          "internalType": "uint256",
          "name": "",
          "type": "uint256"
        }
      ],
      "name": "players",
      "outputs": [
        {
          "internalType": "string",
          "name": "name",
          "type": "string"
        },
        {
          "internalType": "uint256",
          "name": "baseRate",
          "type": "uint256"
        },
        {
          "internalType": "uint256",
          "name": "highestBid",
          "type": "uint256"
        },
        {
          "internalType": "uint256",
          "name": "runs",
          "type": "uint256"
        },
        {
          "internalType": "uint256",
          "name": "wickets",
          "type": "uint256"
        },
        {
          "internalType": "uint256",
          "name": "catches",
          "type": "uint256"
        },
        {
          "internalType": "address payable",
          "name": "highestBidder",
          "type": "address"
        },
        {
          "internalType": "uint256",
          "name": "tokenId",
          "type": "uint256"
        }
      ],
      "stateMutability": "view",
      "type": "function",
      "constant": true
    },
    {
      "inputs": [
        {
          "internalType": "address",
          "name": "from",
          "type": "address"
        },
        {
          "internalType": "address",
          "name": "to",
          "type": "address"
        },
        {
          "internalType": "uint256",
          "name": "tokenId",
          "type": "uint256"
        }
      ],
      "name": "safeTransferFrom",
      "outputs": [],
      "stateMutability": "nonpayable",
      "type": "function"
    },
    {
      "inputs": [
        {
          "internalType": "address",
          "name": "from",
          "type": "address"
        },
        {
          "internalType": "address",
          "name": "to",
          "type": "address"
        },
        {
          "internalType": "uint256",
          "name": "tokenId",
          "type": "uint256"
        },
        {
          "internalType": "bytes",
          "name": "data",
          "type": "bytes"
        }
      ],
      "name": "safeTransferFrom",
      "outputs": [],
      "stateMutability": "nonpayable",
      "type": "function"
    },
    {
      "inputs": [
        {
          "internalType": "address",
          "name": "operator",
          "type": "address"
        },
        {
          "internalType": "bool",
          "name": "approved",
          "type": "bool"
        }
      ],
      "name": "setApprovalForAll",
      "outputs": [],
      "stateMutability": "nonpayable",
      "type": "function"
    },
    {
      "inputs": [],
      "name": "soldPlayerCount",
      "outputs": [
        {
          "internalType": "uint256",
          "name": "",
          "type": "uint256"
        }
      ],
      "stateMutability": "view",
      "type": "function",
      "constant": true
    },
    {
      "inputs": [
        {
          "internalType": "uint256",
          "name": "",
          "type": "uint256"
        }
      ],
      "name": "soldPlayers",
      "outputs": [
        {
          "internalType": "string",
          "name": "name",
          "type": "string"
        },
        {
          "internalType": "uint256",
          "name": "baseRate",
          "type": "uint256"
        },
        {
          "internalType": "uint256",
          "name": "highestBid",
          "type": "uint256"
        },
        {
          "internalType": "uint256",
          "name": "runs",
          "type": "uint256"
        },
        {
          "internalType": "uint256",
          "name": "wickets",
          "type": "uint256"
        },
        {
          "internalType": "uint256",
          "name": "catches",
          "type": "uint256"
        },
        {
          "internalType": "address payable",
          "name": "highestBidder",
          "type": "address"
        },
        {
          "internalType": "uint256",
          "name": "tokenId",
          "type": "uint256"
        }
      ],
      "stateMutability": "view",
      "type": "function",
      "constant": true
    },
    {
      "inputs": [
        {
          "internalType": "bytes4",
          "name": "interfaceId",
          "type": "bytes4"
        }
      ],
      "name": "supportsInterface",
      "outputs": [
        {
          "internalType": "bool",
          "name": "",
          "type": "bool"
        }
      ],
      "stateMutability": "view",
      "type": "function",
      "constant": true
    },
    {
      "inputs": [],
      "name": "symbol",
      "outputs": [
        {
          "internalType": "string",
          "name": "",
          "type": "string"
        }
      ],
      "stateMutability": "view",
      "type": "function",
      "constant": true
    },
    {
      "inputs": [
        {
          "internalType": "uint256",
          "name": "",
          "type": "uint256"
        }
      ],
      "name": "teams",
      "outputs": [
        {
          "internalType": "string",
          "name": "name",
          "type": "string"
        },
        {
          "internalType": "address payable",
          "name": "owner",
          "type": "address"
        }
      ],
      "stateMutability": "view",
      "type": "function",
      "constant": true
    },
    {
      "inputs": [
        {
          "internalType": "uint256",
          "name": "tokenId",
          "type": "uint256"
        }
      ],
      "name": "tokenURI",
      "outputs": [
        {
          "internalType": "string",
          "name": "",
          "type": "string"
        }
      ],
      "stateMutability": "view",
      "type": "function",
      "constant": true
    },
    {
      "inputs": [
        {
          "internalType": "address",
          "name": "from",
          "type": "address"
        },
        {
          "internalType": "address",
          "name": "to",
          "type": "address"
        },
        {
          "internalType": "uint256",
          "name": "tokenId",
          "type": "uint256"
        }
      ],
      "name": "transferFrom",
      "outputs": [],
      "stateMutability": "nonpayable",
      "type": "function"
    },
    {
      "inputs": [],
      "name": "unsoldPlayerCount",
      "outputs": [
        {
          "internalType": "uint256",
          "name": "",
          "type": "uint256"
        }
      ],
      "stateMutability": "view",
      "type": "function",
      "constant": true
    },
    {
      "inputs": [
        {
          "internalType": "uint256",
          "name": "",
          "type": "uint256"
        }
      ],
      "name": "unsoldPlayers",
      "outputs": [
        {
          "internalType": "string",
          "name": "name",
          "type": "string"
        },
        {
          "internalType": "uint256",
          "name": "baseRate",
          "type": "uint256"
        },
        {
          "internalType": "uint256",
          "name": "highestBid",
          "type": "uint256"
        },
        {
          "internalType": "uint256",
          "name": "runs",
          "type": "uint256"
        },
        {
          "internalType": "uint256",
          "name": "wickets",
          "type": "uint256"
        },
        {
          "internalType": "uint256",
          "name": "catches",
          "type": "uint256"
        },
        {
          "internalType": "address payable",
          "name": "highestBidder",
          "type": "address"
        },
        {
          "internalType": "uint256",
          "name": "tokenId",
          "type": "uint256"
        }
      ],
      "stateMutability": "view",
      "type": "function",
      "constant": true
    },
    {
      "inputs": [
        {
          "internalType": "string",
          "name": "team_name",
          "type": "string"
        },
        {
          "internalType": "address",
          "name": "ownerAddr",
          "type": "address"
        }
      ],
      "name": "createTeam",
      "outputs": [],
      "stateMutability": "nonpayable",
      "type": "function"
    },
    {
      "inputs": [
        {
          "internalType": "string",
          "name": "_name",
          "type": "string"
        },
        {
          "internalType": "uint256",
          "name": "_baseRate",
          "type": "uint256"
        },
        {
          "internalType": "uint256",
          "name": "_runs",
          "type": "uint256"
        },
        {
          "internalType": "uint256",
          "name": "_wickets",
          "type": "uint256"
        },
        {
          "internalType": "uint256",
          "name": "_catches",
          "type": "uint256"
        }
      ],
      "name": "addPlayer",
      "outputs": [],
      "stateMutability": "nonpayable",
      "type": "function"
    },
    {
      "inputs": [
        {
          "internalType": "uint256",
          "name": "_playerId",
          "type": "uint256"
        },
        {
          "internalType": "uint256",
          "name": "_runs",
          "type": "uint256"
        },
        {
          "internalType": "uint256",
          "name": "_wickets",
          "type": "uint256"
        },
        {
          "internalType": "uint256",
          "name": "_catches",
          "type": "uint256"
        },
        {
          "internalType": "uint256",
          "name": "_baseRate",
          "type": "uint256"
        },
        {
          "internalType": "uint256",
          "name": "_highestBid",
          "type": "uint256"
        }
      ],
      "name": "updatePlayer",
      "outputs": [],
      "stateMutability": "nonpayable",
      "type": "function"
    },
    {
      "inputs": [],
      "name": "advancePhase",
      "outputs": [],
      "stateMutability": "nonpayable",
      "type": "function"
    },
    {
      "inputs": [
        {
          "internalType": "uint256",
          "name": "_playerId",
          "type": "uint256"
        }
      ],
      "name": "placeBid",
      "outputs": [],
      "stateMutability": "payable",
      "type": "function",
      "payable": true
    },
    {
      "inputs": [],
      "name": "auctionEnd",
      "outputs": [],
      "stateMutability": "nonpayable",
      "type": "function"
    }
  ],
  "bytecode": "0x60806040526000600960006101000a81548160ff021916908360018111156200002d576200002c62000139565b5b02179055503480156200003f57600080fd5b506040518060400160405280600a81526020017f49504c41756374696f6e000000000000000000000000000000000000000000008152506040518060400160405280600381526020017f49504c00000000000000000000000000000000000000000000000000000000008152508160009081620000bd9190620003e2565b508060019081620000cf9190620003e2565b50505033600660006101000a81548173ffffffffffffffffffffffffffffffffffffffff021916908373ffffffffffffffffffffffffffffffffffffffff160217905550600060078190555060006008819055506000600c819055506000600e81905550620004c9565b7f4e487b7100000000000000000000000000000000000000000000000000000000600052602160045260246000fd5b600081519050919050565b7f4e487b7100000000000000000000000000000000000000000000000000000000600052604160045260246000fd5b7f4e487b7100000000000000000000000000000000000000000000000000000000600052602260045260246000fd5b60006002820490506001821680620001ea57607f821691505b6020821081036200020057620001ff620001a2565b5b50919050565b60008190508160005260206000209050919050565b60006020601f8301049050919050565b600082821b905092915050565b6000600883026200026a7fffffffffffffffffffffffffffffffffffffffffffffffffffffffffffffffff826200022b565b6200027686836200022b565b95508019841693508086168417925050509392505050565b6000819050919050565b6000819050919050565b6000620002c3620002bd620002b7846200028e565b62000298565b6200028e565b9050919050565b6000819050919050565b620002df83620002a2565b620002f7620002ee82620002ca565b84845462000238565b825550505050565b600090565b6200030e620002ff565b6200031b818484620002d4565b505050565b5b8181101562000343576200033760008262000304565b60018101905062000321565b5050565b601f82111562000392576200035c8162000206565b62000367846200021b565b8101602085101562000377578190505b6200038f62000386856200021b565b83018262000320565b50505b505050565b600082821c905092915050565b6000620003b76000198460080262000397565b1980831691505092915050565b6000620003d28383620003a4565b9150826002028217905092915050565b620003ed8262000168565b67ffffffffffffffff81111562000409576200040862000173565b5b620004158254620001d1565b6200042282828562000347565b600060209050601f8311600181146200045a576000841562000445578287015190505b620004518582620003c4565b865550620004c1565b601f1984166200046a8662000206565b60005b8281101562000494578489015182556001820191506020850194506020810190506200046d565b86831015620004b45784890151620004b0601f891682620003a4565b8355505b6001600288020188555050505b505050505050565b6141f680620004d96000396000f3fe6080604052600436106101c25760003560e01c80637a6acb00116100f7578063b41b8e6c11610095578063dde91ab111610064578063dde91ab114610652578063e985e9c51461067d578063f3fb05df146106ba578063f71d96cb146106e5576101c2565b8063b41b8e6c146105aa578063b88d4fde146105d5578063be25a718146105fe578063c87b56dd14610615576101c2565b80639809cd31116100d15780639809cd31146105115780639979ef451461053c578063a22cb46514610558578063a66b1e7814610581576101c2565b80637a6acb001461047757806395d89b41146104bb57806397b2f556146104e6576101c2565b80632a24f46c1161016457806357e01a8e1161013e57806357e01a8e14610390578063584b21bc146103b95780636352211e146103fd57806370a082311461043a576101c2565b80632a24f46c146103125780633ed2b77a1461032957806342842e0e14610367576101c2565b8063081812fc116101a0578063081812fc1461025a578063095ea7b3146102975780630bd4ba2f146102c057806323b872dd146102e9576101c2565b806301ffc9a7146101c7578063055ad42e1461020457806306fdde031461022f575b600080fd5b3480156101d357600080fd5b506101ee60048036038101906101e99190612a3f565b610729565b6040516101fb9190612a87565b60405180910390f35b34801561021057600080fd5b5061021961080b565b6040516102269190612b19565b60405180910390f35b34801561023b57600080fd5b5061024461081e565b6040516102519190612bc4565b60405180910390f35b34801561026657600080fd5b50610281600480360381019061027c9190612c1c565b6108b0565b60405161028e9190612c8a565b60405180910390f35b3480156102a357600080fd5b506102be60048036038101906102b99190612cd1565b6108f6565b005b3480156102cc57600080fd5b506102e760048036038101906102e29190612d11565b610a0d565b005b3480156102f557600080fd5b50610310600480360381019061030b9190612d9e565b610b2c565b005b34801561031e57600080fd5b50610327610b8c565b005b34801561033557600080fd5b50610350600480360381019061034b9190612c1c565b610ebe565b60405161035e929190612e12565b60405180910390f35b34801561037357600080fd5b5061038e60048036038101906103899190612d9e565b610f8a565b005b34801561039c57600080fd5b506103b760048036038101906103b29190612f77565b610faa565b005b3480156103c557600080fd5b506103e060048036038101906103db9190612c1c565b6111a6565b6040516103f498979695949392919061301d565b60405180910390f35b34801561040957600080fd5b50610424600480360381019061041f9190612c1c565b611296565b6040516104319190612c8a565b60405180910390f35b34801561044657600080fd5b50610461600480360381019061045c91906130a2565b61131c565b60405161046e91906130cf565b60405180910390f35b34801561048357600080fd5b5061049e60048036038101906104999190612c1c565b6113d3565b6040516104b298979695949392919061301d565b60405180910390f35b3480156104c757600080fd5b506104d06114c3565b6040516104dd9190612bc4565b60405180910390f35b3480156104f257600080fd5b506104fb611555565b60405161050891906130cf565b60405180910390f35b34801561051d57600080fd5b5061052661155b565b60405161053391906130cf565b60405180910390f35b61055660048036038101906105519190612c1c565b611561565b005b34801561056457600080fd5b5061057f600480360381019061057a9190613116565b61168f565b005b34801561058d57600080fd5b506105a860048036038101906105a39190613156565b6116a5565b005b3480156105b657600080fd5b506105bf611807565b6040516105cc91906130cf565b60405180910390f35b3480156105e157600080fd5b506105fc60048036038101906105f79190613253565b61180d565b005b34801561060a57600080fd5b5061061361186f565b005b34801561062157600080fd5b5061063c60048036038101906106379190612c1c565b611a66565b6040516106499190612bc4565b60405180910390f35b34801561065e57600080fd5b50610667611ace565b60405161067491906130cf565b60405180910390f35b34801561068957600080fd5b506106a4600480360381019061069f91906132d6565b611ad4565b6040516106b19190612a87565b60405180910390f35b3480156106c657600080fd5b506106cf611b68565b6040516106dc9190613316565b60405180910390f35b3480156106f157600080fd5b5061070c60048036038101906107079190612c1c565b611b8e565b60405161072098979695949392919061301d565b60405180910390f35b60007f80ac58cd000000000000000000000000000000000000000000000000000000007bffffffffffffffffffffffffffffffffffffffffffffffffffffffff1916827bffffffffffffffffffffffffffffffffffffffffffffffffffffffff191614806107f457507f5b5e139f000000000000000000000000000000000000000000000000000000007bffffffffffffffffffffffffffffffffffffffffffffffffffffffff1916827bffffffffffffffffffffffffffffffffffffffffffffffffffffffff1916145b80610804575061080382611c7e565b5b9050919050565b600960009054906101000a900460ff1681565b60606000805461082d90613360565b80601f016020809104026020016040519081016040528092919081815260200182805461085990613360565b80156108a65780601f1061087b576101008083540402835291602001916108a6565b820191906000526020600020905b81548152906001019060200180831161088957829003601f168201915b5050505050905090565b60006108bb82611ce8565b6004600083815260200190815260200160002060009054906101000a900473ffffffffffffffffffffffffffffffffffffffff169050919050565b600061090182611296565b90508073ffffffffffffffffffffffffffffffffffffffff168373ffffffffffffffffffffffffffffffffffffffff1603610971576040517f08c379a000000000000000000000000000000000000000000000000000000000815260040161096890613403565b60405180910390fd5b8073ffffffffffffffffffffffffffffffffffffffff16610990611d33565b73ffffffffffffffffffffffffffffffffffffffff1614806109bf57506109be816109b9611d33565b611ad4565b5b6109fe576040517f08c379a00000000000000000000000000000000000000000000000000000000081526004016109f590613495565b60405180910390fd5b610a088383611d3b565b505050565b600660009054906101000a900473ffffffffffffffffffffffffffffffffffffffff1673ffffffffffffffffffffffffffffffffffffffff163373ffffffffffffffffffffffffffffffffffffffff1614610a9d576040517f08c379a0000000000000000000000000000000000000000000000000000000008152600401610a9490613501565b60405180910390fd5b84600a60008881526020019081526020016000206003018190555083600a60008881526020019081526020016000206004018190555082600a60008881526020019081526020016000206005018190555081600a60008881526020019081526020016000206001018190555080600a600088815260200190815260200160002060020181905550505050505050565b610b3d610b37611d33565b82611df4565b610b7c576040517f08c379a0000000000000000000000000000000000000000000000000000000008152600401610b7390613593565b60405180910390fd5b610b87838383611e89565b505050565b600660009054906101000a900473ffffffffffffffffffffffffffffffffffffffff1673ffffffffffffffffffffffffffffffffffffffff163373ffffffffffffffffffffffffffffffffffffffff1614610c1c576040517f08c379a0000000000000000000000000000000000000000000000000000000008152600401610c13906135ff565b60405180910390fd5b60005b600754811015610eb3576000600a600083815260200190815260200160002060060160009054906101000a900473ffffffffffffffffffffffffffffffffffffffff169050610c853382600a600086815260200190815260200160002060070154610b2c565b6000600a60008481526020019081526020016000206002015414610da357600a6000838152602001908152602001600020600b6000600c54815260200190815260200160002060008201816000019081610cdf91906137e1565b5060018201548160010155600282015481600201556003820154816003015560048201548160040155600582015481600501556006820160009054906101000a900473ffffffffffffffffffffffffffffffffffffffff168160060160006101000a81548173ffffffffffffffffffffffffffffffffffffffff021916908373ffffffffffffffffffffffffffffffffffffffff16021790555060078201548160070155905050600c6000815480929190610d99906138f8565b9190505550610e9f565b600a6000838152602001908152602001600020600d6000600e54815260200190815260200160002060008201816000019081610ddf91906137e1565b5060018201548160010155600282015481600201556003820154816003015560048201548160040155600582015481600501556006820160009054906101000a900473ffffffffffffffffffffffffffffffffffffffff168160060160006101000a81548173ffffffffffffffffffffffffffffffffffffffff021916908373ffffffffffffffffffffffffffffffffffffffff16021790555060078201548160070155905050600e6000815480929190610e99906138f8565b91905055505b508080610eab906138f8565b915050610c1f565b50610ebc61186f565b565b600f602052806000526040600020600091509050806000018054610ee190613360565b80601f0160208091040260200160405190810160405280929190818152602001828054610f0d90613360565b8015610f5a5780601f10610f2f57610100808354040283529160200191610f5a565b820191906000526020600020905b815481529060010190602001808311610f3d57829003601f168201915b5050505050908060010160009054906101000a900473ffffffffffffffffffffffffffffffffffffffff16905082565b610fa58383836040518060200160405280600081525061180d565b505050565b600660009054906101000a900473ffffffffffffffffffffffffffffffffffffffff1673ffffffffffffffffffffffffffffffffffffffff163373ffffffffffffffffffffffffffffffffffffffff161461103a576040517f08c379a00000000000000000000000000000000000000000000000000000000081526004016110319061398c565b60405180910390fd5b604051806101000160405280868152602001858152602001600081526020018481526020018381526020018281526020013373ffffffffffffffffffffffffffffffffffffffff168152602001600754815250600a6000600754815260200190815260200160002060008201518160000190816110b791906139ac565b506020820151816001015560408201518160020155606082015181600301556080820151816004015560a0820151816005015560c08201518160060160006101000a81548173ffffffffffffffffffffffffffffffffffffffff021916908373ffffffffffffffffffffffffffffffffffffffff16021790555060e0820151816007015590505061114a33600754612182565b7f17d1cee0493d8e0f55b5fd88d22afe6b41d8b880d14bf526333e2050ef019665600754868660405161117f93929190613a7e565b60405180910390a16007600081548092919061119a906138f8565b91905055505050505050565b600b6020528060005260406000206000915090508060000180546111c990613360565b80601f01602080910402602001604051908101604052809291908181526020018280546111f590613360565b80156112425780601f1061121757610100808354040283529160200191611242565b820191906000526020600020905b81548152906001019060200180831161122557829003601f168201915b5050505050908060010154908060020154908060030154908060040154908060050154908060060160009054906101000a900473ffffffffffffffffffffffffffffffffffffffff16908060070154905088565b6000806112a28361239f565b9050600073ffffffffffffffffffffffffffffffffffffffff168173ffffffffffffffffffffffffffffffffffffffff1603611313576040517f08c379a000000000000000000000000000000000000000000000000000000000815260040161130a90613b08565b60405180910390fd5b80915050919050565b60008073ffffffffffffffffffffffffffffffffffffffff168273ffffffffffffffffffffffffffffffffffffffff160361138c576040517f08c379a000000000000000000000000000000000000000000000000000000000815260040161138390613b9a565b60405180910390fd5b600360008373ffffffffffffffffffffffffffffffffffffffff1673ffffffffffffffffffffffffffffffffffffffff168152602001908152602001600020549050919050565b600d6020528060005260406000206000915090508060000180546113f690613360565b80601f016020809104026020016040519081016040528092919081815260200182805461142290613360565b801561146f5780601f106114445761010080835404028352916020019161146f565b820191906000526020600020905b81548152906001019060200180831161145257829003601f168201915b5050505050908060010154908060020154908060030154908060040154908060050154908060060160009054906101000a900473ffffffffffffffffffffffffffffffffffffffff16908060070154905088565b6060600180546114d290613360565b80601f01602080910402602001604051908101604052809291908181526020018280546114fe90613360565b801561154b5780601f106115205761010080835404028352916020019161154b565b820191906000526020600020905b81548152906001019060200180831161152e57829003601f168201915b5050505050905090565b60075481565b600e5481565b60075481106115a5576040517f08c379a000000000000000000000000000000000000000000000000000000000815260040161159c90613c06565b60405180910390fd5b600a60008281526020019081526020016000206001015434116115fd576040517f08c379a00000000000000000000000000000000000000000000000000000000081526004016115f490613c98565b60405180910390fd5b600a60008281526020019081526020016000206002015434111561168c5733600a600083815260200190815260200160002060060160006101000a81548173ffffffffffffffffffffffffffffffffffffffff021916908373ffffffffffffffffffffffffffffffffffffffff16021790555034600a6000838152602001908152602001600020600201819055505b50565b6116a161169a611d33565b83836123dc565b5050565b600660009054906101000a900473ffffffffffffffffffffffffffffffffffffffff1673ffffffffffffffffffffffffffffffffffffffff163373ffffffffffffffffffffffffffffffffffffffff1614611735576040517f08c379a000000000000000000000000000000000000000000000000000000000815260040161172c90613d04565b60405180910390fd5b81600f60006008548152602001908152602001600020600001908161175a91906139ac565b5080600f6000600854815260200190815260200160002060010160006101000a81548173ffffffffffffffffffffffffffffffffffffffff021916908373ffffffffffffffffffffffffffffffffffffffff1602179055507fb54d8537171af96888cdf036039abe4e5d44715690384090e7043ac782651c3b82336040516117e3929190613d24565b60405180910390a1600860008154809291906117fe906138f8565b91905055505050565b600c5481565b61181e611818611d33565b83611df4565b61185d576040517f08c379a000000000000000000000000000000000000000000000000000000000815260040161185490613593565b60405180910390fd5b61186984848484612548565b50505050565b600660009054906101000a900473ffffffffffffffffffffffffffffffffffffffff1673ffffffffffffffffffffffffffffffffffffffff163373ffffffffffffffffffffffffffffffffffffffff16146118ff576040517f08c379a00000000000000000000000000000000000000000000000000000000081526004016118f6906135ff565b60405180910390fd5b60018081111561191257611911612aa2565b5b600960009054906101000a900460ff16600181111561193457611933612aa2565b5b03611969576000600960006101000a81548160ff0219169083600181111561195f5761195e612aa2565b5b0217905550611995565b6001600960006101000a81548160ff0219169083600181111561198f5761198e612aa2565b5b02179055505b600060018111156119a9576119a8612aa2565b5b600960009054906101000a900460ff1660018111156119cb576119ca612aa2565b5b036119fd577fc8f99b9ac2a284b93c3652b9f064a6706724088cdafa9e0a8437c026191b2f0360405160405180910390a15b600180811115611a1057611a0f612aa2565b5b600960009054906101000a900460ff166001811115611a3257611a31612aa2565b5b03611a64577fa0e92984607195c326795751263414ee1074526323552e694c90ef2b99ae3f2960405160405180910390a15b565b6060611a7182611ce8565b6000611a7b6125a4565b90506000815111611a9b5760405180602001604052806000815250611ac6565b80611aa5846125bb565b604051602001611ab6929190613d90565b6040516020818303038152906040525b915050919050565b60085481565b6000600560008473ffffffffffffffffffffffffffffffffffffffff1673ffffffffffffffffffffffffffffffffffffffff16815260200190815260200160002060008373ffffffffffffffffffffffffffffffffffffffff1673ffffffffffffffffffffffffffffffffffffffff16815260200190815260200160002060009054906101000a900460ff16905092915050565b600660009054906101000a900473ffffffffffffffffffffffffffffffffffffffff1681565b600a602052806000526040600020600091509050806000018054611bb190613360565b80601f0160208091040260200160405190810160405280929190818152602001828054611bdd90613360565b8015611c2a5780601f10611bff57610100808354040283529160200191611c2a565b820191906000526020600020905b815481529060010190602001808311611c0d57829003601f168201915b5050505050908060010154908060020154908060030154908060040154908060050154908060060160009054906101000a900473ffffffffffffffffffffffffffffffffffffffff16908060070154905088565b60007f01ffc9a7000000000000000000000000000000000000000000000000000000007bffffffffffffffffffffffffffffffffffffffffffffffffffffffff1916827bffffffffffffffffffffffffffffffffffffffffffffffffffffffff1916149050919050565b611cf181612689565b611d30576040517f08c379a0000000000000000000000000000000000000000000000000000000008152600401611d2790613b08565b60405180910390fd5b50565b600033905090565b816004600083815260200190815260200160002060006101000a81548173ffffffffffffffffffffffffffffffffffffffff021916908373ffffffffffffffffffffffffffffffffffffffff160217905550808273ffffffffffffffffffffffffffffffffffffffff16611dae83611296565b73ffffffffffffffffffffffffffffffffffffffff167f8c5be1e5ebec7d5bd14f71427d1e84f3dd0314c0f7b2291e5b200ac8c7c3b92560405160405180910390a45050565b600080611e0083611296565b90508073ffffffffffffffffffffffffffffffffffffffff168473ffffffffffffffffffffffffffffffffffffffff161480611e425750611e418185611ad4565b5b80611e8057508373ffffffffffffffffffffffffffffffffffffffff16611e68846108b0565b73ffffffffffffffffffffffffffffffffffffffff16145b91505092915050565b8273ffffffffffffffffffffffffffffffffffffffff16611ea982611296565b73ffffffffffffffffffffffffffffffffffffffff1614611eff576040517f08c379a0000000000000000000000000000000000000000000000000000000008152600401611ef690613e26565b60405180910390fd5b600073ffffffffffffffffffffffffffffffffffffffff168273ffffffffffffffffffffffffffffffffffffffff1603611f6e576040517f08c379a0000000000000000000000000000000000000000000000000000000008152600401611f6590613eb8565b60405180910390fd5b611f7b83838360016126ca565b8273ffffffffffffffffffffffffffffffffffffffff16611f9b82611296565b73ffffffffffffffffffffffffffffffffffffffff1614611ff1576040517f08c379a0000000000000000000000000000000000000000000000000000000008152600401611fe890613e26565b60405180910390fd5b6004600082815260200190815260200160002060006101000a81549073ffffffffffffffffffffffffffffffffffffffff02191690556001600360008573ffffffffffffffffffffffffffffffffffffffff1673ffffffffffffffffffffffffffffffffffffffff168152602001908152602001600020600082825403925050819055506001600360008473ffffffffffffffffffffffffffffffffffffffff1673ffffffffffffffffffffffffffffffffffffffff16815260200190815260200160002060008282540192505081905550816002600083815260200190815260200160002060006101000a81548173ffffffffffffffffffffffffffffffffffffffff021916908373ffffffffffffffffffffffffffffffffffffffff160217905550808273ffffffffffffffffffffffffffffffffffffffff168473ffffffffffffffffffffffffffffffffffffffff167fddf252ad1be2c89b69c2b068fc378daa952ba7f163c4a11628f55a4df523b3ef60405160405180910390a461217d83838360016126d0565b505050565b600073ffffffffffffffffffffffffffffffffffffffff168273ffffffffffffffffffffffffffffffffffffffff16036121f1576040517f08c379a00000000000000000000000000000000000000000000000000000000081526004016121e890613f24565b60405180910390fd5b6121fa81612689565b1561223a576040517f08c379a000000000000000000000000000000000000000000000000000000000815260040161223190613f90565b60405180910390fd5b6122486000838360016126ca565b61225181612689565b15612291576040517f08c379a000000000000000000000000000000000000000000000000000000000815260040161228890613f90565b60405180910390fd5b6001600360008473ffffffffffffffffffffffffffffffffffffffff1673ffffffffffffffffffffffffffffffffffffffff16815260200190815260200160002060008282540192505081905550816002600083815260200190815260200160002060006101000a81548173ffffffffffffffffffffffffffffffffffffffff021916908373ffffffffffffffffffffffffffffffffffffffff160217905550808273ffffffffffffffffffffffffffffffffffffffff16600073ffffffffffffffffffffffffffffffffffffffff167fddf252ad1be2c89b69c2b068fc378daa952ba7f163c4a11628f55a4df523b3ef60405160405180910390a461239b6000838360016126d0565b5050565b60006002600083815260200190815260200160002060009054906101000a900473ffffffffffffffffffffffffffffffffffffffff169050919050565b8173ffffffffffffffffffffffffffffffffffffffff168373ffffffffffffffffffffffffffffffffffffffff160361244a576040517f08c379a000000000000000000000000000000000000000000000000000000000815260040161244190613ffc565b60405180910390fd5b80600560008573ffffffffffffffffffffffffffffffffffffffff1673ffffffffffffffffffffffffffffffffffffffff16815260200190815260200160002060008473ffffffffffffffffffffffffffffffffffffffff1673ffffffffffffffffffffffffffffffffffffffff16815260200190815260200160002060006101000a81548160ff0219169083151502179055508173ffffffffffffffffffffffffffffffffffffffff168373ffffffffffffffffffffffffffffffffffffffff167f17307eab39ab6107e8899845ad3d59bd9653f200f220920489ca2b5937696c318360405161253b9190612a87565b60405180910390a3505050565b612553848484611e89565b61255f848484846126d6565b61259e576040517f08c379a00000000000000000000000000000000000000000000000000000000081526004016125959061408e565b60405180910390fd5b50505050565b606060405180602001604052806000815250905090565b6060600060016125ca8461285d565b01905060008167ffffffffffffffff8111156125e9576125e8612e4c565b5b6040519080825280601f01601f19166020018201604052801561261b5781602001600182028036833780820191505090505b509050600082602001820190505b60011561267e578080600190039150507f3031323334353637383961626364656600000000000000000000000000000000600a86061a8153600a8581612672576126716140ae565b5b04945060008503612629575b819350505050919050565b60008073ffffffffffffffffffffffffffffffffffffffff166126ab8361239f565b73ffffffffffffffffffffffffffffffffffffffff1614159050919050565b50505050565b50505050565b60006126f78473ffffffffffffffffffffffffffffffffffffffff166129b0565b15612850578373ffffffffffffffffffffffffffffffffffffffff1663150b7a02612720611d33565b8786866040518563ffffffff1660e01b81526004016127429493929190614132565b6020604051808303816000875af192505050801561277e57506040513d601f19601f8201168201806040525081019061277b9190614193565b60015b612800573d80600081146127ae576040519150601f19603f3d011682016040523d82523d6000602084013e6127b3565b606091505b5060008151036127f8576040517f08c379a00000000000000000000000000000000000000000000000000000000081526004016127ef9061408e565b60405180910390fd5b805181602001fd5b63150b7a0260e01b7bffffffffffffffffffffffffffffffffffffffffffffffffffffffff1916817bffffffffffffffffffffffffffffffffffffffffffffffffffffffff191614915050612855565b600190505b949350505050565b600080600090507a184f03e93ff9f4daa797ed6e38ed64bf6a1f01000000000000000083106128bb577a184f03e93ff9f4daa797ed6e38ed64bf6a1f01000000000000000083816128b1576128b06140ae565b5b0492506040810190505b6d04ee2d6d415b85acef810000000083106128f8576d04ee2d6d415b85acef810000000083816128ee576128ed6140ae565b5b0492506020810190505b662386f26fc10000831061292757662386f26fc10000838161291d5761291c6140ae565b5b0492506010810190505b6305f5e1008310612950576305f5e1008381612946576129456140ae565b5b0492506008810190505b612710831061297557612710838161296b5761296a6140ae565b5b0492506004810190505b60648310612998576064838161298e5761298d6140ae565b5b0492506002810190505b600a83106129a7576001810190505b80915050919050565b6000808273ffffffffffffffffffffffffffffffffffffffff163b119050919050565b6000604051905090565b600080fd5b600080fd5b60007fffffffff0000000000000000000000000000000000000000000000000000000082169050919050565b612a1c816129e7565b8114612a2757600080fd5b50565b600081359050612a3981612a13565b92915050565b600060208284031215612a5557612a546129dd565b5b6000612a6384828501612a2a565b91505092915050565b60008115159050919050565b612a8181612a6c565b82525050565b6000602082019050612a9c6000830184612a78565b92915050565b7f4e487b7100000000000000000000000000000000000000000000000000000000600052602160045260246000fd5b60028110612ae257612ae1612aa2565b5b50565b6000819050612af382612ad1565b919050565b6000612b0382612ae5565b9050919050565b612b1381612af8565b82525050565b6000602082019050612b2e6000830184612b0a565b92915050565b600081519050919050565b600082825260208201905092915050565b60005b83811015612b6e578082015181840152602081019050612b53565b60008484015250505050565b6000601f19601f8301169050919050565b6000612b9682612b34565b612ba08185612b3f565b9350612bb0818560208601612b50565b612bb981612b7a565b840191505092915050565b60006020820190508181036000830152612bde8184612b8b565b905092915050565b6000819050919050565b612bf981612be6565b8114612c0457600080fd5b50565b600081359050612c1681612bf0565b92915050565b600060208284031215612c3257612c316129dd565b5b6000612c4084828501612c07565b91505092915050565b600073ffffffffffffffffffffffffffffffffffffffff82169050919050565b6000612c7482612c49565b9050919050565b612c8481612c69565b82525050565b6000602082019050612c9f6000830184612c7b565b92915050565b612cae81612c69565b8114612cb957600080fd5b50565b600081359050612ccb81612ca5565b92915050565b60008060408385031215612ce857612ce76129dd565b5b6000612cf685828601612cbc565b9250506020612d0785828601612c07565b9150509250929050565b60008060008060008060c08789031215612d2e57612d2d6129dd565b5b6000612d3c89828a01612c07565b9650506020612d4d89828a01612c07565b9550506040612d5e89828a01612c07565b9450506060612d6f89828a01612c07565b9350506080612d8089828a01612c07565b92505060a0612d9189828a01612c07565b9150509295509295509295565b600080600060608486031215612db757612db66129dd565b5b6000612dc586828701612cbc565b9350506020612dd686828701612cbc565b9250506040612de786828701612c07565b9150509250925092565b6000612dfc82612c49565b9050919050565b612e0c81612df1565b82525050565b60006040820190508181036000830152612e2c8185612b8b565b9050612e3b6020830184612e03565b9392505050565b600080fd5b600080fd5b7f4e487b7100000000000000000000000000000000000000000000000000000000600052604160045260246000fd5b612e8482612b7a565b810181811067ffffffffffffffff82111715612ea357612ea2612e4c565b5b80604052505050565b6000612eb66129d3565b9050612ec28282612e7b565b919050565b600067ffffffffffffffff821115612ee257612ee1612e4c565b5b612eeb82612b7a565b9050602081019050919050565b82818337600083830152505050565b6000612f1a612f1584612ec7565b612eac565b905082815260208101848484011115612f3657612f35612e47565b5b612f41848285612ef8565b509392505050565b600082601f830112612f5e57612f5d612e42565b5b8135612f6e848260208601612f07565b91505092915050565b600080600080600060a08688031215612f9357612f926129dd565b5b600086013567ffffffffffffffff811115612fb157612fb06129e2565b5b612fbd88828901612f49565b9550506020612fce88828901612c07565b9450506040612fdf88828901612c07565b9350506060612ff088828901612c07565b925050608061300188828901612c07565b9150509295509295909350565b61301781612be6565b82525050565b6000610100820190508181036000830152613038818b612b8b565b9050613047602083018a61300e565b613054604083018961300e565b613061606083018861300e565b61306e608083018761300e565b61307b60a083018661300e565b61308860c0830185612e03565b61309560e083018461300e565b9998505050505050505050565b6000602082840312156130b8576130b76129dd565b5b60006130c684828501612cbc565b91505092915050565b60006020820190506130e4600083018461300e565b92915050565b6130f381612a6c565b81146130fe57600080fd5b50565b600081359050613110816130ea565b92915050565b6000806040838503121561312d5761312c6129dd565b5b600061313b85828601612cbc565b925050602061314c85828601613101565b9150509250929050565b6000806040838503121561316d5761316c6129dd565b5b600083013567ffffffffffffffff81111561318b5761318a6129e2565b5b61319785828601612f49565b92505060206131a885828601612cbc565b9150509250929050565b600067ffffffffffffffff8211156131cd576131cc612e4c565b5b6131d682612b7a565b9050602081019050919050565b60006131f66131f1846131b2565b612eac565b90508281526020810184848401111561321257613211612e47565b5b61321d848285612ef8565b509392505050565b600082601f83011261323a57613239612e42565b5b813561324a8482602086016131e3565b91505092915050565b6000806000806080858703121561326d5761326c6129dd565b5b600061327b87828801612cbc565b945050602061328c87828801612cbc565b935050604061329d87828801612c07565b925050606085013567ffffffffffffffff8111156132be576132bd6129e2565b5b6132ca87828801613225565b91505092959194509250565b600080604083850312156132ed576132ec6129dd565b5b60006132fb85828601612cbc565b925050602061330c85828601612cbc565b9150509250929050565b600060208201905061332b6000830184612e03565b92915050565b7f4e487b7100000000000000000000000000000000000000000000000000000000600052602260045260246000fd5b6000600282049050600182168061337857607f821691505b60208210810361338b5761338a613331565b5b50919050565b7f4552433732313a20617070726f76616c20746f2063757272656e74206f776e6560008201527f7200000000000000000000000000000000000000000000000000000000000000602082015250565b60006133ed602183612b3f565b91506133f882613391565b604082019050919050565b6000602082019050818103600083015261341c816133e0565b9050919050565b7f4552433732313a20617070726f76652063616c6c6572206973206e6f7420746f60008201527f6b656e206f776e6572206f7220617070726f76656420666f7220616c6c000000602082015250565b600061347f603d83612b3f565b915061348a82613423565b604082019050919050565b600060208201905081810360008301526134ae81613472565b9050919050565b7f4f6e6c792061756374696f6e65722063616e2065646974206120706c61796572600082015250565b60006134eb602083612b3f565b91506134f6826134b5565b602082019050919050565b6000602082019050818103600083015261351a816134de565b9050919050565b7f4552433732313a2063616c6c6572206973206e6f7420746f6b656e206f776e6560008201527f72206f7220617070726f76656400000000000000000000000000000000000000602082015250565b600061357d602d83612b3f565b915061358882613521565b604082019050919050565b600060208201905081810360008301526135ac81613570565b9050919050565b7f6f6e6c7941756374696f6e657200000000000000000000000000000000000000600082015250565b60006135e9600d83612b3f565b91506135f4826135b3565b602082019050919050565b60006020820190508181036000830152613618816135dc565b9050919050565b60008154905061362e81613360565b9050919050565b60008190508160005260206000209050919050565b60006020601f8301049050919050565b600082821b905092915050565b6000600883026136977fffffffffffffffffffffffffffffffffffffffffffffffffffffffffffffffff8261365a565b6136a1868361365a565b95508019841693508086168417925050509392505050565b6000819050919050565b60006136de6136d96136d484612be6565b6136b9565b612be6565b9050919050565b6000819050919050565b6136f8836136c3565b61370c613704826136e5565b848454613667565b825550505050565b600090565b613721613714565b61372c8184846136ef565b505050565b5b8181101561375057613745600082613719565b600181019050613732565b5050565b601f8211156137955761376681613635565b61376f8461364a565b8101602085101561377e578190505b61379261378a8561364a565b830182613731565b50505b505050565b600082821c905092915050565b60006137b86000198460080261379a565b1980831691505092915050565b60006137d183836137a7565b9150826002028217905092915050565b8181036137ef5750506138c7565b6137f88261361f565b67ffffffffffffffff81111561381157613810612e4c565b5b61381b8254613360565b613826828285613754565b6000601f8311600181146138555760008415613843578287015490505b61384d85826137c5565b8655506138c0565b601f19841661386387613635565b965061386e86613635565b60005b8281101561389657848901548255600182019150600185019450602081019050613871565b868310156138b357848901546138af601f8916826137a7565b8355505b6001600288020188555050505b5050505050505b565b7f4e487b7100000000000000000000000000000000000000000000000000000000600052601160045260246000fd5b600061390382612be6565b91507fffffffffffffffffffffffffffffffffffffffffffffffffffffffffffffffff8203613935576139346138c9565b5b600182019050919050565b7f4f6e6c792061756374696f6e65722063616e20616464206120706c6179657200600082015250565b6000613976601f83612b3f565b915061398182613940565b602082019050919050565b600060208201905081810360008301526139a581613969565b9050919050565b6139b582612b34565b67ffffffffffffffff8111156139ce576139cd612e4c565b5b6139d88254613360565b6139e3828285613754565b600060209050601f831160018114613a165760008415613a04578287015190505b613a0e85826137c5565b865550613a76565b601f198416613a2486613635565b60005b82811015613a4c57848901518255600182019150602085019450602081019050613a27565b86831015613a695784890151613a65601f8916826137a7565b8355505b6001600288020188555050505b505050505050565b6000606082019050613a93600083018661300e565b8181036020830152613aa58185612b8b565b9050613ab4604083018461300e565b949350505050565b7f4552433732313a20696e76616c696420746f6b656e2049440000000000000000600082015250565b6000613af2601883612b3f565b9150613afd82613abc565b602082019050919050565b60006020820190508181036000830152613b2181613ae5565b9050919050565b7f4552433732313a2061646472657373207a65726f206973206e6f74206120766160008201527f6c6964206f776e65720000000000000000000000000000000000000000000000602082015250565b6000613b84602983612b3f565b9150613b8f82613b28565b604082019050919050565b60006020820190508181036000830152613bb381613b77565b9050919050565b7f506c6179657220646f6573206e6f742065786973740000000000000000000000600082015250565b6000613bf0601583612b3f565b9150613bfb82613bba565b602082019050919050565b60006020820190508181036000830152613c1f81613be3565b9050919050565b7f42696420616d6f756e742073686f756c6420626520677265617465722074686160008201527f6e207468652063757272656e7420686967686573742062696400000000000000602082015250565b6000613c82603983612b3f565b9150613c8d82613c26565b604082019050919050565b60006020820190508181036000830152613cb181613c75565b9050919050565b7f4f6e6c792061756374696f6e65722063616e20637265617465207465616d0000600082015250565b6000613cee601e83612b3f565b9150613cf982613cb8565b602082019050919050565b60006020820190508181036000830152613d1d81613ce1565b9050919050565b60006040820190508181036000830152613d3e8185612b8b565b9050613d4d6020830184612c7b565b9392505050565b600081905092915050565b6000613d6a82612b34565b613d748185613d54565b9350613d84818560208601612b50565b80840191505092915050565b6000613d9c8285613d5f565b9150613da88284613d5f565b91508190509392505050565b7f4552433732313a207472616e736665722066726f6d20696e636f72726563742060008201527f6f776e6572000000000000000000000000000000000000000000000000000000602082015250565b6000613e10602583612b3f565b9150613e1b82613db4565b604082019050919050565b60006020820190508181036000830152613e3f81613e03565b9050919050565b7f4552433732313a207472616e7366657220746f20746865207a65726f2061646460008201527f7265737300000000000000000000000000000000000000000000000000000000602082015250565b6000613ea2602483612b3f565b9150613ead82613e46565b604082019050919050565b60006020820190508181036000830152613ed181613e95565b9050919050565b7f4552433732313a206d696e7420746f20746865207a65726f2061646472657373600082015250565b6000613f0e602083612b3f565b9150613f1982613ed8565b602082019050919050565b60006020820190508181036000830152613f3d81613f01565b9050919050565b7f4552433732313a20746f6b656e20616c7265616479206d696e74656400000000600082015250565b6000613f7a601c83612b3f565b9150613f8582613f44565b602082019050919050565b60006020820190508181036000830152613fa981613f6d565b9050919050565b7f4552433732313a20617070726f766520746f2063616c6c657200000000000000600082015250565b6000613fe6601983612b3f565b9150613ff182613fb0565b602082019050919050565b6000602082019050818103600083015261401581613fd9565b9050919050565b7f4552433732313a207472616e7366657220746f206e6f6e20455243373231526560008201527f63656976657220696d706c656d656e7465720000000000000000000000000000602082015250565b6000614078603283612b3f565b91506140838261401c565b604082019050919050565b600060208201905081810360008301526140a78161406b565b9050919050565b7f4e487b7100000000000000000000000000000000000000000000000000000000600052601260045260246000fd5b600081519050919050565b600082825260208201905092915050565b6000614104826140dd565b61410e81856140e8565b935061411e818560208601612b50565b61412781612b7a565b840191505092915050565b60006080820190506141476000830187612c7b565b6141546020830186612c7b565b614161604083018561300e565b818103606083015261417381846140f9565b905095945050505050565b60008151905061418d81612a13565b92915050565b6000602082840312156141a9576141a86129dd565b5b60006141b78482850161417e565b9150509291505056fea2646970667358221220aed1cdb4d9fa6d3cc248bdbe0be59336d2fab54e5da29b6017226360e96a555164736f6c63430008130033",
  "immutableReferences": {},
  "source": "//SPDX-License-Identifier: UNLICENSED\n\npragma solidity >=0.4.22 <0.9.0;\n\nimport \"@openzeppelin/contracts/token/ERC721/ERC721.sol\";\n\ncontract IPLAuction is ERC721 {\n    \n    address payable public auctioner;\n    uint256 public numPlayers;\n    uint256 public numTeams;\n    \n    // Phases will be set only by external agents and not by time \"now\"\n    // Enum-uint mapping:\n    // Started - 0; Ended - 1\n    enum Phase {Started, Ended}\n\n    Phase public currentPhase = Phase.Started;\n\n    modifier onlyAuctioner() {\n        require(msg.sender == auctioner, \"onlyAuctioner\");\n        _;\n    }\n\n    struct Player {\n        string name;\n        uint256 baseRate;\n        uint256 highestBid;\n        uint256 runs;\n        uint256 wickets;\n        uint256 catches;\n        address payable highestBidder;\n        uint256 tokenId;\n    }\n\n    struct Team {\n        string name;\n        address payable owner;\n        mapping(uint256 => Player) players;\n    }\n\n    mapping(uint256 => Player) public players;\n    mapping(uint256 => Player) public soldPlayers;\n    uint256 public soldPlayerCount;\n    mapping(uint256 => Player) public unsoldPlayers;\n    uint256 public unsoldPlayerCount;\n    mapping(uint256 => Team) public teams;\n    \n    event AuctionStarted();\n    event PlayerAdded(uint256 playerId, string name, uint256 basePrice);\n    event TeamCreated(string teamName, address owner);\n    event PlayerSold(uint256 playerId, string playerName, uint256 highestBid, address buyer);\n    event AuctionEnded();\n    \n    constructor() ERC721(\"IPLAuction\", \"IPL\") {\n        auctioner = payable(msg.sender);\n        numPlayers = 0;\n        numTeams = 0;\n        soldPlayerCount = 0;\n        unsoldPlayerCount = 0;\n    }\n\n    function createTeam(string memory team_name, address ownerAddr) public {\n        require(msg.sender == auctioner, \"Only auctioner can create team\");\n        \n        teams[numTeams].name = team_name;\n        teams[numTeams].owner = payable(ownerAddr);\n\n        emit TeamCreated(team_name, msg.sender);\n        numTeams++;\n    }\n\n    function addPlayer(\n        string memory _name,\n        uint256 _baseRate,\n        uint256 _runs,\n        uint256 _wickets,\n        uint256 _catches\n    ) public {\n        require(msg.sender == auctioner, \"Only auctioner can add a player\");\n        // tokenId = numPlayers\n        players[numPlayers] = Player(\n            _name,\n            _baseRate,\n            0,\n            _runs,\n            _wickets,\n            _catches,\n            payable(msg.sender),\n            numPlayers\n        );\n        _mint(msg.sender, numPlayers);\n        emit PlayerAdded(numPlayers, _name, _baseRate);\n        numPlayers++;\n    }\n\n    function updatePlayer(\n        uint256 _playerId,\n        uint256 _runs,\n        uint256 _wickets,\n        uint256 _catches,\n        uint256 _baseRate,\n        uint256 _highestBid\n    ) public {\n        require(msg.sender == auctioner, \"Only auctioner can edit a player\");\n        players[_playerId].runs = _runs;\n        players[_playerId].wickets = _wickets;\n        players[_playerId].catches = _catches;\n        players[_playerId].baseRate = _baseRate;\n        players[_playerId].highestBid = _highestBid;\n        // Emit an event\n    }\n\n    function advancePhase() public onlyAuctioner {\n        // If already in done phase, reset to init phase\n        if (currentPhase == Phase.Ended) {\n            currentPhase = Phase.Started;\n        } else {\n            currentPhase = Phase.Ended;\n        }\n\n        // Emit appropriate events for the new phase\n        if (currentPhase == Phase.Started) emit AuctionStarted();\n        if (currentPhase == Phase.Ended) emit AuctionEnded();\n    }\n\n    function placeBid(uint256 _playerId) public payable {\n        require(_playerId < numPlayers, \"Player does not exist\");\n        require(\n            msg.value > players[_playerId].baseRate,\n            \"Bid amount should be greater than the current highest bid\"\n        );\n\n        if(msg.value > players[_playerId].highestBid)\n        {\n            // Update the highest bidder for this player\n            players[_playerId].highestBidder = payable(msg.sender);\n            players[_playerId].highestBid = msg.value;\n        }\n    }\n\n    function auctionEnd() public onlyAuctioner {\n        // Transfer the player to the highest bidder\n        for (uint256 i = 0; i < numPlayers; i++) {\n            address highestBidder = players[i].highestBidder;\n            transferFrom(msg.sender, highestBidder, players[i].tokenId);\n            \n            if (players[i].highestBid != 0) {\n                soldPlayers[soldPlayerCount] = players[i];\n                soldPlayerCount++;\n            } else {\n                unsoldPlayers[unsoldPlayerCount] = players[i];\n                unsoldPlayerCount++;\n            }\n        }\n        advancePhase();\n    }\n\n}",
  "sourcePath": "/Users/harshithasid/Documents/Spring2023/CSE526-Blockchain/Project/IPL-Dapp/ipl-auction-contract/contracts/IPLAuction.sol",
  "compiler": {
    "name": "solc",
    "version": "0.8.19+commit.7dd6d404.Emscripten.clang"
  },
  "schemaVersion": "3.4.13",
  "updatedAt": "2023-05-09T03:47:24.791Z",
  "networkType": "ethereum",
  "devdoc": {
    "events": {
      "Approval(address,address,uint256)": {
        "details": "Emitted when `owner` enables `approved` to manage the `tokenId` token."
      },
      "ApprovalForAll(address,address,bool)": {
        "details": "Emitted when `owner` enables or disables (`approved`) `operator` to manage all of its assets."
      },
      "Transfer(address,address,uint256)": {
        "details": "Emitted when `tokenId` token is transferred from `from` to `to`."
      }
    },
    "kind": "dev",
    "methods": {
      "approve(address,uint256)": {
        "details": "See {IERC721-approve}."
      },
      "balanceOf(address)": {
        "details": "See {IERC721-balanceOf}."
      },
      "getApproved(uint256)": {
        "details": "See {IERC721-getApproved}."
      },
      "isApprovedForAll(address,address)": {
        "details": "See {IERC721-isApprovedForAll}."
      },
      "name()": {
        "details": "See {IERC721Metadata-name}."
      },
      "ownerOf(uint256)": {
        "details": "See {IERC721-ownerOf}."
      },
      "safeTransferFrom(address,address,uint256)": {
        "details": "See {IERC721-safeTransferFrom}."
      },
      "safeTransferFrom(address,address,uint256,bytes)": {
        "details": "See {IERC721-safeTransferFrom}."
      },
      "setApprovalForAll(address,bool)": {
        "details": "See {IERC721-setApprovalForAll}."
      },
      "supportsInterface(bytes4)": {
        "details": "See {IERC165-supportsInterface}."
      },
      "symbol()": {
        "details": "See {IERC721Metadata-symbol}."
      },
      "tokenURI(uint256)": {
        "details": "See {IERC721Metadata-tokenURI}."
      },
      "transferFrom(address,address,uint256)": {
        "details": "See {IERC721-transferFrom}."
      }
    },
    "version": 1
  },
  "userdoc": {
    "kind": "user",
    "methods": {},
    "version": 1
  }
}